{
  "_format": "hh-sol-artifact-1",
  "contractName": "DataConsumerV3",
  "sourceName": "contracts/DataConsumerV3.sol",
  "abi": [
    {
      "inputs": [],
      "stateMutability": "nonpayable",
      "type": "constructor"
    },
    {
      "inputs": [],
      "name": "getLatestData",
      "outputs": [
        {
          "internalType": "uint80",
          "name": "",
          "type": "uint80"
        },
        {
          "internalType": "int256",
          "name": "",
          "type": "int256"
        },
        {
          "internalType": "uint256",
          "name": "",
          "type": "uint256"
        },
        {
          "internalType": "uint256",
          "name": "",
          "type": "uint256"
        }
      ],
      "stateMutability": "view",
      "type": "function"
    }
  ],
  "bytecode": "0x608060405234801561001057600080fd5b50731b44f3514812d835eb1bdb0acb33d3fa3351ee436000806101000a81548173ffffffffffffffffffffffffffffffffffffffff021916908373ffffffffffffffffffffffffffffffffffffffff1602179055506102e1806100746000396000f3fe608060405234801561001057600080fd5b506004361061002b5760003560e01c8063ab757d6114610030575b600080fd5b610038610051565b6040516100489493929190610162565b60405180910390f35b60008060008060008060008060008054906101000a900473ffffffffffffffffffffffffffffffffffffffff1673ffffffffffffffffffffffffffffffffffffffff1663feaf968c6040518163ffffffff1660e01b815260040160a060405180830381865afa1580156100c8573d6000803e3d6000fd5b505050506040513d601f19601f820116820180604052508101906100ec9190610230565b5093509350935093508383838397509750975097505050505090919293565b600069ffffffffffffffffffff82169050919050565b61012a8161010b565b82525050565b6000819050919050565b61014381610130565b82525050565b6000819050919050565b61015c81610149565b82525050565b60006080820190506101776000830187610121565b610184602083018661013a565b6101916040830185610153565b61019e6060830184610153565b95945050505050565b600080fd5b6101b58161010b565b81146101c057600080fd5b50565b6000815190506101d2816101ac565b92915050565b6101e181610130565b81146101ec57600080fd5b50565b6000815190506101fe816101d8565b92915050565b61020d81610149565b811461021857600080fd5b50565b60008151905061022a81610204565b92915050565b600080600080600060a0868803121561024c5761024b6101a7565b5b600061025a888289016101c3565b955050602061026b888289016101ef565b945050604061027c8882890161021b565b935050606061028d8882890161021b565b925050608061029e888289016101c3565b915050929550929590935056fea26469706673582212200e3dc05bcb42ed5e47b34bfd8df39a64fadb39e4441ba4994871a18ba898ef5564736f6c63430008130033",
  "linkReferences": {},
  "deployedLinkReferences": {}
}