{
  "_format": "hh-sol-artifact-1",
  "contractName": "HistoricalDataConsumerV3",
  "sourceName": "contracts/HistoricalDataConsumerV3.sol",
  "abi": [
    {
      "inputs": [],
      "stateMutability": "nonpayable",
      "type": "constructor"
    },
    {
      "inputs": [
        {
          "internalType": "uint80",
          "name": "lowerLimit",
          "type": "uint80"
        },
        {
          "internalType": "uint80",
          "name": "upperLimit",
          "type": "uint80"
        }
      ],
      "name": "getBatch",
      "outputs": [
        {
          "components": [
            {
              "internalType": "uint80",
              "name": "roundID",
              "type": "uint80"
            },
            {
              "internalType": "int256",
              "name": "answer",
              "type": "int256"
            },
            {
              "internalType": "uint256",
              "name": "startedAt",
              "type": "uint256"
            },
            {
              "internalType": "uint256",
              "name": "timeStamp",
              "type": "uint256"
            }
          ],
          "internalType": "struct HistoricalDataConsumerV3.ReturnedData[]",
          "name": "",
          "type": "tuple[]"
        }
      ],
      "stateMutability": "view",
      "type": "function"
    },
    {
      "inputs": [
        {
          "internalType": "uint80",
          "name": "startingRoundId",
          "type": "uint80"
        },
        {
          "internalType": "uint80",
          "name": "latestRoundId",
          "type": "uint80"
        },
        {
          "internalType": "uint256",
          "name": "endTime",
          "type": "uint256"
        }
      ],
      "name": "getEndRoundId",
      "outputs": [
        {
          "internalType": "uint80",
          "name": "",
          "type": "uint80"
        }
      ],
      "stateMutability": "view",
      "type": "function"
    },
    {
      "inputs": [
        {
          "internalType": "uint80",
          "name": "roundId",
          "type": "uint80"
        }
      ],
      "name": "getHistoricalData",
      "outputs": [
        {
          "internalType": "uint80",
          "name": "",
          "type": "uint80"
        },
        {
          "internalType": "int256",
          "name": "",
          "type": "int256"
        },
        {
          "internalType": "uint256",
          "name": "",
          "type": "uint256"
        },
        {
          "internalType": "uint256",
          "name": "",
          "type": "uint256"
        }
      ],
      "stateMutability": "view",
      "type": "function"
    },
    {
      "inputs": [
        {
          "internalType": "uint80",
          "name": "startingRoundId",
          "type": "uint80"
        },
        {
          "internalType": "uint80",
          "name": "latestRoundId",
          "type": "uint80"
        },
        {
          "internalType": "uint256",
          "name": "startTime",
          "type": "uint256"
        }
      ],
      "name": "getStartRoundId",
      "outputs": [
        {
          "internalType": "uint80",
          "name": "",
          "type": "uint80"
        },
        {
          "internalType": "uint256",
          "name": "",
          "type": "uint256"
        }
      ],
      "stateMutability": "view",
      "type": "function"
    }
  ],
  "bytecode": "0x608060405234801561001057600080fd5b5073a39434a63a52e749f02807ae27335515ba4b07f76000806101000a81548173ffffffffffffffffffffffffffffffffffffffff021916908373ffffffffffffffffffffffffffffffffffffffff1602179055506109de806100746000396000f3fe608060405234801561001057600080fd5b506004361061004c5760003560e01c80632183c8ce14610051578063783d83891461008457806399a14c61146100b4578063af04923e146100e4575b600080fd5b61006b60048036038101906100669190610493565b610115565b60405161007b9493929190610501565b60405180910390f35b61009e60048036038101906100999190610572565b6101db565b6040516100ab91906105c5565b60405180910390f35b6100ce60048036038101906100c991906105e0565b61025b565b6040516100db9190610751565b60405180910390f35b6100fe60048036038101906100f99190610572565b610399565b60405161010c929190610773565b60405180910390f35b60008060008060008060008060008054906101000a900473ffffffffffffffffffffffffffffffffffffffff1673ffffffffffffffffffffffffffffffffffffffff16639a6fc8f58a6040518263ffffffff1660e01b815260040161017a91906105c5565b60a060405180830381865afa158015610197573d6000803e3d6000fd5b505050506040513d601f19601f820116820180604052508101906101bb91906107f2565b509350935093509350838383839750975097509750505050509193509193565b60008060006001866101ed919061089c565b90505b8469ffffffffffffffffffff168169ffffffffffffffffffff161161024f57600061021a82610115565b935050505084811061023b5760018261023391906108da565b92505061024f565b50808061024790610918565b9150506101f0565b50809150509392505050565b60606000838361026b91906108da565b69ffffffffffffffffffff16905060008167ffffffffffffffff8111156102955761029461094a565b5b6040519080825280602002602001820160405280156102ce57816020015b6102bb610418565b8152602001906001900390816102b35790505b5090506000600190505b828169ffffffffffffffffffff161161038d57600080600080610305858b610300919061089c565b610115565b9350935093509350600060405180608001604052808669ffffffffffffffffffff168152602001858152602001848152602001838152509050808760018861034d91906108da565b69ffffffffffffffffffff168151811061036a57610369610979565b5b60200260200101819052505050505050808061038590610918565b9150506102d8565b50809250505092915050565b60008060008060006001886103ae919061089c565b90505b8669ffffffffffffffffffff168169ffffffffffffffffffff16116104075760006103db82610115565b93505050508681106103f35781935080925050610407565b5080806103ff90610918565b9150506103b1565b508181935093505050935093915050565b6040518060800160405280600069ffffffffffffffffffff1681526020016000815260200160008152602001600081525090565b600080fd5b600069ffffffffffffffffffff82169050919050565b61047081610451565b811461047b57600080fd5b50565b60008135905061048d81610467565b92915050565b6000602082840312156104a9576104a861044c565b5b60006104b78482850161047e565b91505092915050565b6104c981610451565b82525050565b6000819050919050565b6104e2816104cf565b82525050565b6000819050919050565b6104fb816104e8565b82525050565b600060808201905061051660008301876104c0565b61052360208301866104d9565b61053060408301856104f2565b61053d60608301846104f2565b95945050505050565b61054f816104e8565b811461055a57600080fd5b50565b60008135905061056c81610546565b92915050565b60008060006060848603121561058b5761058a61044c565b5b60006105998682870161047e565b93505060206105aa8682870161047e565b92505060406105bb8682870161055d565b9150509250925092565b60006020820190506105da60008301846104c0565b92915050565b600080604083850312156105f7576105f661044c565b5b60006106058582860161047e565b92505060206106168582860161047e565b9150509250929050565b600081519050919050565b600082825260208201905092915050565b6000819050602082019050919050565b61065581610451565b82525050565b610664816104cf565b82525050565b610673816104e8565b82525050565b60808201600082015161068f600085018261064c565b5060208201516106a2602085018261065b565b5060408201516106b5604085018261066a565b5060608201516106c8606085018261066a565b50505050565b60006106da8383610679565b60808301905092915050565b6000602082019050919050565b60006106fe82610620565b610708818561062b565b93506107138361063c565b8060005b8381101561074457815161072b88826106ce565b9750610736836106e6565b925050600181019050610717565b5085935050505092915050565b6000602082019050818103600083015261076b81846106f3565b905092915050565b600060408201905061078860008301856104c0565b61079560208301846104f2565b9392505050565b6000815190506107ab81610467565b92915050565b6107ba816104cf565b81146107c557600080fd5b50565b6000815190506107d7816107b1565b92915050565b6000815190506107ec81610546565b92915050565b600080600080600060a0868803121561080e5761080d61044c565b5b600061081c8882890161079c565b955050602061082d888289016107c8565b945050604061083e888289016107dd565b935050606061084f888289016107dd565b92505060806108608882890161079c565b9150509295509295909350565b7f4e487b7100000000000000000000000000000000000000000000000000000000600052601160045260246000fd5b60006108a782610451565b91506108b283610451565b9250828201905069ffffffffffffffffffff8111156108d4576108d361086d565b5b92915050565b60006108e582610451565b91506108f083610451565b9250828203905069ffffffffffffffffffff8111156109125761091161086d565b5b92915050565b600061092382610451565b915069ffffffffffffffffffff820361093f5761093e61086d565b5b600182019050919050565b7f4e487b7100000000000000000000000000000000000000000000000000000000600052604160045260246000fd5b7f4e487b7100000000000000000000000000000000000000000000000000000000600052603260045260246000fdfea2646970667358221220269cb96f48faadcd411a625ba37cfd8c674251e3160805b522d13f4507f90aa864736f6c63430008130033",
  "linkReferences": {},
  "deployedLinkReferences": {}
}